{
  "transactions": [
    {
      "hash": "0x16e6ab25acdc4e01147b9478493aca38d1dc34d305641e1a7a9c28bf91afbf49",
      "transactionType": "CALL",
      "contractName": null,
      "contractAddress": "0xbec49fa140acaa83533fb00a2bb19bddd0290f25",
      "function": "updateValueOnRemoteChain(uint256,address,uint256)",
      "arguments": [
        "420120001",
        "0xB0D4afd8879eD9F52b28595d31B441D079B2Ca07",
        "42"
      ],
      "transaction": {
        "from": "0xf39fd6e51aad88f6f4ce6ab8827279cfffb92266",
        "to": "0xbec49fa140acaa83533fb00a2bb19bddd0290f25",
        "gas": "0x13151",
        "value": "0x0",
        "input": "0x79026c8c00000000000000000000000000000000000000000000000000000000190a85c1000000000000000000000000b0d4afd8879ed9f52b28595d31b441d079b2ca07000000000000000000000000000000000000000000000000000000000000002a",
        "nonce": "0x54",
        "chainId": "0x190a85c0"
      },
      "additionalContracts": [],
      "isFixedGasLimit": false
    }
  ],
  "receipts": [
    {
      "status": "0x1",
      "cumulativeGasUsed": "0x2468d",
      "logs": [
        {
          "address": "0x4200000000000000000000000000000000000023",
          "topics": [
            "0x382409ac69001e11931a28435afef442cbfd20d9891907e8fa373ba7d351f320",
            "0x0000000000000000000000007b77ac0269c523d7678f113f61c2ecbff6f0e7dc",
            "0x000000000000000000000000419053c900000000000000000000000000000000",
            "0x0000000000000000000000000000000000000000000000000000000000000249"
          ],
          "data": "0x0000000000000000000000007b77ac0269c523d7678f113f61c2ecbff6f0e7dc0000000000000000000000000000000000000000000000000000000000000040000000000000000000000000000000000000000000000000000000000000002000000000000000000000000000000000000000000000000000000000000f4240",
          "blockHash": "0x62eb75daed9879b0e9a69acb39acf72c6de60bdc6f3e96aa1ee34036925a9e24",
          "blockNumber": "0xdc53b",
          "transactionHash": "0x16e6ab25acdc4e01147b9478493aca38d1dc34d305641e1a7a9c28bf91afbf49",
          "transactionIndex": "0x2",
          "logIndex": "0x0",
          "removed": false
        },
        {
          "address": "0x7b77ac0269c523d7678f113f61c2ecbff6f0e7dc",
          "topics": [
            "0x86fc20a2dd865f32fe06700aa826daf241b0c959de445214b24ede282a9ce4c3",
            "0x00000000000000000000000000000000000000000000000000000000190a85c1",
            "0x000000000000000000000000b0d4afd8879ed9f52b28595d31b441d079b2ca07"
          ],
          "data": "0xdf64b9d2000000000000000000000000000000000000000000000000000000000000000000000000000000000000000000000000000000000000000000000060e17efd38a5c4ab723c324b9ddc585a94fd7078d228e1d4ce5c076ad2e8c8eafd0000000000000000000000000000000000000000000000000000000000000064df64b9d2000000000000000000000000000000000000000000000000000000000000002a00000000000000000000000000000000000000000000000000000000190a85c0000000000000000000000000f39fd6e51aad88f6f4ce6ab8827279cfffb9226600000000000000000000000000000000000000000000000000000000",
          "blockHash": "0x62eb75daed9879b0e9a69acb39acf72c6de60bdc6f3e96aa1ee34036925a9e24",
          "blockNumber": "0xdc53b",
          "transactionHash": "0x16e6ab25acdc4e01147b9478493aca38d1dc34d305641e1a7a9c28bf91afbf49",
          "transactionIndex": "0x2",
          "logIndex": "0x1",
          "removed": false
        },
        {
          "address": "0xbec49fa140acaa83533fb00a2bb19bddd0290f25",
          "topics": [
            "0x0925472047cbfad2c5fbc3253b4b5e4940c32f2b880b69b28e14b29a812c8739"
          ],
          "data": "0x00000000000000000000000000000000000000000000000000000000190a85c1000000000000000000000000000000000000000000000000000000000000002ae17efd38a5c4ab723c324b9ddc585a94fd7078d228e1d4ce5c076ad2e8c8eafd",
          "blockHash": "0x62eb75daed9879b0e9a69acb39acf72c6de60bdc6f3e96aa1ee34036925a9e24",
          "blockNumber": "0xdc53b",
          "transactionHash": "0x16e6ab25acdc4e01147b9478493aca38d1dc34d305641e1a7a9c28bf91afbf49",
          "transactionIndex": "0x2",
          "logIndex": "0x2",
          "removed": false
        }
      ],
      "logsBloom": "0x20000000000000000000000020020000000000000000000000000000000000000001000000000400000400000000000000000000000000100008000000000400000000000000000002000000000000000000000000000100000100000000200000000000000000000000000004000120000000020000000000008400000000000010000000000020000000000000000000000000800000000000000000000000040000000000000000000000000000000004090200000000000000000000000000000000000000002000000000000000000000100000000000000000000000000000000000000000000000002000000000000000100000040000000000000100",
      "type": "0x2",
      "transactionHash": "0x16e6ab25acdc4e01147b9478493aca38d1dc34d305641e1a7a9c28bf91afbf49",
      "transactionIndex": "0x2",
      "blockHash": "0x62eb75daed9879b0e9a69acb39acf72c6de60bdc6f3e96aa1ee34036925a9e24",
      "blockNumber": "0xdc53b",
      "gasUsed": "0xdd0c",
      "effectiveGasPrice": "0xfd",
      "from": "0xf39fd6e51aad88f6f4ce6ab8827279cfffb92266",
      "to": "0xbec49fa140acaa83533fb00a2bb19bddd0290f25",
      "contractAddress": null,
      "l1BaseFeeScalar": "0x558",
      "l1BlobBaseFee": "0xd7ee15f",
      "l1BlobBaseFeeScalar": "0xc5fc5",
      "l1Fee": "0x13b0045e1a",
      "l1GasPrice": "0x70aa0955c",
      "l1GasUsed": "0x640"
    }
  ],
  "libraries": [],
  "pending": [],
  "returns": {},
  "timestamp": 1740744070,
  "chain": 420120000,
  "commit": "087106d"
}