{
  "transactions": [
    {
      "hash": "0xbacf29043588898c7fade3cf4675dccabe71ef3a10a23a1c543491d9593d0f42",
      "transactionType": "CALL",
      "contractName": null,
      "contractAddress": "0xbec49fa140acaa83533fb00a2bb19bddd0290f25",
      "function": "updateValueOnRemoteChain(uint256,address,uint256)",
      "arguments": [
        "420120001",
        "0xB0D4afd8879eD9F52b28595d31B441D079B2Ca07",
        "42"
      ],
      "transaction": {
        "from": "0xf39fd6e51aad88f6f4ce6ab8827279cfffb92266",
        "to": "0xbec49fa140acaa83533fb00a2bb19bddd0290f25",
        "gas": "0x13151",
        "value": "0x0",
        "input": "0x79026c8c00000000000000000000000000000000000000000000000000000000190a85c1000000000000000000000000b0d4afd8879ed9f52b28595d31b441d079b2ca07000000000000000000000000000000000000000000000000000000000000002a",
        "nonce": "0x53",
        "chainId": "0x190a85c0"
      },
      "additionalContracts": [],
      "isFixedGasLimit": false
    }
  ],
  "receipts": [
    {
      "status": "0x1",
      "cumulativeGasUsed": "0x24699",
      "logs": [
        {
          "address": "0x4200000000000000000000000000000000000023",
          "topics": [
            "0x382409ac69001e11931a28435afef442cbfd20d9891907e8fa373ba7d351f320",
            "0x0000000000000000000000007b77ac0269c523d7678f113f61c2ecbff6f0e7dc",
            "0x000000000000000000000000419053c900000000000000000000000000000000",
            "0x0000000000000000000000000000000000000000000000000000000000000248"
          ],
          "data": "0x0000000000000000000000007b77ac0269c523d7678f113f61c2ecbff6f0e7dc0000000000000000000000000000000000000000000000000000000000000040000000000000000000000000000000000000000000000000000000000000002000000000000000000000000000000000000000000000000000000000000f4240",
          "blockHash": "0x6eeb40e6e0c7bfd650aee93ba3912c173fb1a33aa3db046c7412c369cfd5f9bd",
          "blockNumber": "0xdc4ac",
          "transactionHash": "0xbacf29043588898c7fade3cf4675dccabe71ef3a10a23a1c543491d9593d0f42",
          "transactionIndex": "0x2",
          "logIndex": "0x0",
          "removed": false
        },
        {
          "address": "0x7b77ac0269c523d7678f113f61c2ecbff6f0e7dc",
          "topics": [
            "0x86fc20a2dd865f32fe06700aa826daf241b0c959de445214b24ede282a9ce4c3",
            "0x00000000000000000000000000000000000000000000000000000000190a85c1",
            "0x000000000000000000000000b0d4afd8879ed9f52b28595d31b441d079b2ca07"
          ],
          "data": "0xdf64b9d2000000000000000000000000000000000000000000000000000000000000000000000000000000000000000000000000000000000000000000000060338cd96847941578445bd2c8e8a3ddabc1390e152886dc1870583a74a8490f6b0000000000000000000000000000000000000000000000000000000000000064df64b9d2000000000000000000000000000000000000000000000000000000000000002a00000000000000000000000000000000000000000000000000000000190a85c0000000000000000000000000f39fd6e51aad88f6f4ce6ab8827279cfffb9226600000000000000000000000000000000000000000000000000000000",
          "blockHash": "0x6eeb40e6e0c7bfd650aee93ba3912c173fb1a33aa3db046c7412c369cfd5f9bd",
          "blockNumber": "0xdc4ac",
          "transactionHash": "0xbacf29043588898c7fade3cf4675dccabe71ef3a10a23a1c543491d9593d0f42",
          "transactionIndex": "0x2",
          "logIndex": "0x1",
          "removed": false
        },
        {
          "address": "0xbec49fa140acaa83533fb00a2bb19bddd0290f25",
          "topics": [
            "0x0925472047cbfad2c5fbc3253b4b5e4940c32f2b880b69b28e14b29a812c8739"
          ],
          "data": "0x00000000000000000000000000000000000000000000000000000000190a85c1000000000000000000000000000000000000000000000000000000000000002a338cd96847941578445bd2c8e8a3ddabc1390e152886dc1870583a74a8490f6b",
          "blockHash": "0x6eeb40e6e0c7bfd650aee93ba3912c173fb1a33aa3db046c7412c369cfd5f9bd",
          "blockNumber": "0xdc4ac",
          "transactionHash": "0xbacf29043588898c7fade3cf4675dccabe71ef3a10a23a1c543491d9593d0f42",
          "transactionIndex": "0x2",
          "logIndex": "0x2",
          "removed": false
        }
      ],
      "logsBloom": "0x20000000000000000000000020020000000000000000000000000000000000000001000004000400000400200000000000000000000000100008000000000400000000000000000002000000000000000000000000000100002100000000000000000000000000000000000004000120000000020000000000008400000000000010000000000020000000000000000000000000800000000000000000000000040000000000000000000000000000000004010200000000000000000000000000000000000000002000000000000000000000100000000000000000000000000000000000000000000000002000000000000000000000040000000000000100",
      "type": "0x2",
      "transactionHash": "0xbacf29043588898c7fade3cf4675dccabe71ef3a10a23a1c543491d9593d0f42",
      "transactionIndex": "0x2",
      "blockHash": "0x6eeb40e6e0c7bfd650aee93ba3912c173fb1a33aa3db046c7412c369cfd5f9bd",
      "blockNumber": "0xdc4ac",
      "gasUsed": "0xdd0c",
      "effectiveGasPrice": "0xfd",
      "from": "0xf39fd6e51aad88f6f4ce6ab8827279cfffb92266",
      "to": "0xbec49fa140acaa83533fb00a2bb19bddd0290f25",
      "contractAddress": null,
      "l1BaseFeeScalar": "0x558",
      "l1BlobBaseFee": "0xa40af3e",
      "l1BlobBaseFeeScalar": "0xc5fc5",
      "l1Fee": "0x11662fdfd4",
      "l1GasPrice": "0x67721268e",
      "l1GasUsed": "0x640"
    }
  ],
  "libraries": [],
  "pending": [],
  "returns": {},
  "timestamp": 1740743785,
  "chain": 420120000,
  "commit": "087106d"
}